:020000040800F2
:10000000B004002001010008491800082D1600085E
:100010004518000855020008C91C0008000000002F
:10002000000000000000000000000000E5180008CB
:100030005902000800000000B5180008191900084E
:100040001B0100081B0100081B0100081B01000820
:100050001B0100081B0100081B0100089502000895
:10006000A1020008AD0200081B0100081B010008E6
:100070001B0100081B0100081B0100081B010008F0
:100080001B0100081B0100081B0100081B010008E0
:100090001B0100081B0100081B0100081B010008D0
:1000A0001B0100081B0100081B0100081B010008C0
:1000B0001B0100081B0100081B0100081B010008B0
:1000C0001B0100081B0100081B0100081B010008A0
:1000D0001B0100081B0100081B0100081B01000890
:1000E0001B0100081B0100081B010008DFF80CD0F1
:1000F00000F02AF800480047411D0008B004002025
:100100000648804706480047FEE7FEE7FEE7FEE7B1
:10011000FEE7FEE7FEE7FEE7FEE7FEE79D190008C3
:10012000ED000008D2B201E000F8012B491EFBD21D
:1001300070470022F6E710B513460A4604461946F2
:10014000FFF7F0FF204610BD064C074D06E0E068C3
:1001500040F0010394E8070098471034AC42F6D30E
:10016000FFF7C8FFE81D0008081E0008B0B50446E8
:1001700000688168C90709D0816821F001018160A8
:1001800000F04EFC21688968C90701D10020B0BD8C
:10019000054603E020688068C007F7D000F040FC07
:1001A000401B0328F6D320688068C007F2D0A06AFD
:1001B00040F01000A062E06A40F00100E06201201F
:1001C000B0BD0000B0B582B00446002001902168A7
:1001D0008A68D2073CD1886840F00100886040F20C
:1001E0000000C2F2000000684DF68361C4F21B31CA
:1001F000A0FB0101880C00BF0190019810B101988B
:100200000138F9E700F00CFC21688968C9071BD1A7
:10021000054603E020688068C00718D100F000FCA4
:10022000401B0328F6D320688068C007F2D1A06A7B
:1002300040F01000A062E06A40F00100E06200209F
:100240006062012002B0B0BD002002B0B0BD00204D
:1002500002B0B0BDFEE700007047000070B540F28C
:100260004005C2F20005286840F600040026C4F2EA
:100270000104466320464FF48061002200F0CAFB6F
:1002800028684FF4006186632046002200F0C2FB1C
:1002900070BD000080B5022000F0A2FA80BD000011
:1002A00080B5042000F09CFA80BD000080B50820D5
:1002B00000F096FA80BD0000EFF3108072B600BF28
:1002C000FEE7000070B581B000220092426A012A68
:1002D00001D1022176E04A680123062A436205D84B
:1002E00003686FF0040C03F1340E0AE003680C2A73
:1002F00087BF03F12C0E6FF0400C03F1300E6FF04E
:10030000220C02EB8202DEF8005062441F230C68CC
:10031000934025EA030304FA02F21A43CEF80020C0
:100320000E68D0F800E006EB46051024092E88BFC1
:100330001E3D88BF0C245EF8042007238968AB406B
:100340009A43A94011434EF8041026F001014FF0E2
:10035000000C10294FF0000132D142F20041C4F2EA
:1003600001018E4505D0816A41F0200181620121A1
:1003700026E08968090222D4DEF80810102E41F424
:100380000001CEF808101AD140F20001C2F20001BB
:1003900009684DF68362C4F21B32A1FB0212910C74
:1003A00001EB810149000091009941B100990139A7
:1003B0000091009900294FF00001F7D100E00021E1
:1003C000C0F824C0084601B070BD00000068C06CD1
:1003D00070470000002804BF01207047B0B50546F3
:1003E000044655F8280F28B90020E06260622046D4
:1003F00000F080F82046FFF7B9FEA16A01F0100175
:100400000843A06A04D040F0100101202960B0BD6B
:1004100041F2021188430230A062E069D4E901315F
:10042000E26840EA030E4B1ED4F814C0B3FA83F31B
:100430005809B1F5807F0B4618BF0302BCF1010FCC
:100440004EEA420E14D142B1A26A42F02002A262E8
:10045000E26A42F00102E2620AE0D4F818C04EF209
:100460000002CFF6FF7202EB4C321A4342F40063F3
:100470002268B1F5807F506820F4694040EA0300AB
:10048000506090684FF2FD73CFF6E17300EA03000D
:1004900040EA0E00906001D0012906D120690021B8
:1004A000CFF6F07101EB005100E00021D06A20F49A
:1004B00070000843D062906840F6FE61CFF61F716D
:1004C0000840704507D10020E062A16A012262F372
:1004D00001012960B0BDA06A40F0100020F00200C8
:1004E000A06254F82C0F40F001010120254629603C
:1004F000B0BD000080B586B0014640F60000C4F2F1
:100500000100096800F5E05291424FF00001CDE989
:100510000411CDE9021101D006B080BD41F21801ED
:10052000C4F202010A6842F400720A600A6802F426
:1005300000720192019A0A6842F004020A60096896
:1005400001F004010191019901210291032103911C
:1005500002A900F053F906B080BD00002DE9F0417A
:1005600082B000260D460446019600F059FA216833
:100570008A68D2053CD480464868C00503D4C86A5E
:1005800010F4700F3DD040F20000C2F20000066887
:10059000022000F0CFFA216844F624130A69B6FB62
:1005A000F0F0C2F292431A4206D1CA6844F624130C
:1005B000C0F292031A423ED00A6942F29243C1F25B
:1005C00049231A4206D1CA6842F29243C0F2490353
:1005D0001A4242D00A6949F24923C0F224031A425E
:1005E0004FF0FC023AD1C968194208BF542235E0E5
:1005F000A06A40F02000A0626662012002B0BDE85F
:10060000F08120680068800744D46E1C08E000BFB9
:100610002068006880075CD520680068800739D4AE
:10062000002EF9D0002DF3D000F0FAF9A0EB08006D
:10063000A842EDD8F0E70A6942F29243C1F2492399
:100640001A424FF0290209D1C96842F29243C0F21E
:100650004903194208BF142200E05422019902FB09
:1006600000F7B94216D26E1C09E000BF0198B842EB
:100670002FD30198013001900198B8420AD2002E80
:10068000F7D0002DF2D000F0CBF9A0EB0800A84283
:10069000ECD8EEE720686FF012010160A16A41F426
:1006A0000071A162806800F46020B0F5602F0CD169
:1006B000E06850B9A06A20F48070A062A06AC0040B
:1006C00003D4A06A40F00100A062002002B0BDE89F
:1006D000F081A06A40F00400A06200206062032064
:1006E00002B0BDE8F081000010B50446406A012860
:1006F00004BF022010BD012060622046FFF762FDAA
:1007000010B10021616210BD42F2044C2168A26A5E
:10071000C4F2010C40F201339A430CF57F7E02F5DE
:1007200080727145A26207D0A26A22F48012A2628E
:100730004A68520519D41DE0DCF8002012F4702F2D
:10074000F2D0A26A42F60003C4F2010342F480121E
:100750009942A26205D042F20042C4F201029142E3
:1007600008D1DCF80020520504D5A26A012363F306
:100770000D32A262A36A0022DB044FF0000344BFE3
:10078000E36A23F00603E36262626FF002020A602A
:100790008A6802F46022B2F5602F0BD1714504D053
:1007A0008A6842F4A0028A6010BDDCF8002012F4CE
:1007B000702FF5D08A6842F480128A6010BD000064
:1007C000022840F20400C2F2000002D10188013187
:1007D00001800188042924BF0121018070470000A5
:1007E00080B540F21441C4F201010A68024208BF18
:1007F00080BD0860FFF7E4FF80BD00002DE9F04FE9
:1008000084B00E680290002E00F0018140F2004793
:1008100041F2004202984FF6FF7EC4F20107C4F293
:100820000102042300240125C1F2100E4FF0000A3A
:100830004FF00009904208BF032300930AE000BF75
:1008400001250E680AF1010A36FA0AF204F10404DD
:1008500000F0DD8005FA0AFB16EA0B08F1D04A68C1
:10086000724511DC122A54D80298DFE802F0350AEA
:100870004347535353535353535353535353534A6D
:100880004E00D1F80C9045E04FF6FF73C1F2210302
:100890009A4210DC0023C1F2110302989A421BD045
:1008A0000023C1F212039A4216D00023C1F22103A1
:1008B0009A4211D02EE00023C1F2220302989A42FC
:1008C0000AD00023C1F231039A4205D00023C1F2BD
:1008D00032039A421ED100BF8A6842B1012A14BF76
:1008E000C0F814B0C0F810B04FF0080912E04FF093
:1008F00004090FE0CA6802F108090BE04FF0000993
:1009000008E0CA6802F1040904E0CA6802F10C09AF
:1009100000E0029822460346B8F5807F24BF203AC3
:1009200004331D684FF00F0C0CFA02F6B54309FAB8
:1009300002F22A431A60CA79D2067FF581AF41F2EA
:100940001803CDF80490C4F202031A68F34642F08B
:1009500001021A601A684FEA9A0E02F0010203922D
:10096000039AA7F57E72B94652F82E3004F00C07B0
:1009700040F600060CFA07F5C4F20106B04223EA7D
:10098000050C10D040F60043C4F2010398420CD08D
:1009900041F20003C4F201039842009B4FF00105AD
:1009A00008BF022303E0002300E001230125BB4030
:1009B00043EA0C0342F82E304E684F46F203D9F852
:1009C000002054BF22EA080242EA0802DDF804903F
:1009D0003A607A68B30354BF22EA080242EA080286
:1009E0007A60F302BA6854BF22EA080242EA0802B7
:1009F000B30240F20C43BA60C4F20103DE461A6847
:100A000054BF22EA080242EA08021A6019E704B059
:100A1000BDE8F08F002A08BF09040161704700009B
:100A200040F2A800C2F200000068704740F20800DF
:100A300040F2A801C2F20000C2F2000100680A6898
:100A4000104408607047000080B542F20000C4F214
:100A50000200016841F010010160032000F066F817
:100A6000002000F005F800F02BF8002080BD000009
:100A7000B0B540F20802C2F2000240F20001126872
:100A8000C2F200014FF47A730968B3FBF2F2044634
:100A9000B1FBF2F1084600F0D9FB0F2C4FF0010535
:100AA0000CD858B94FF0FF3021460022002500F045
:100AB0002DF840F20C00C2F2000004602846B0BDE0
:100AC00082B041F21800C4F202000168022241F033
:100AD00001010160016801F0010101910199416882
:100AE00041F080514160406800F0805000900098D3
:100AF0000420C4F20100016862F31A61016002B0CF
:100B00007047000080B501F0E1F880BD70B5144673
:100B10000D46064601F0EAF82946224600F096FE08
:100B20000146304601F0EAF870BD000080B501F0E2
:100B3000F7F880BD80B5012818D0022841D01028D0
:100B40003DD141F20401C4F202010A6851F8040CDB
:100B5000C00134D5C2F383402EA3185CD2033FD426
:100B600040F60012C0F23D02504345E041F204005D
:100B7000C4F20200C16940F202320A40B2F5817F3C
:100B800004BF4FF4004080BD01F44071B1F5407FD7
:100B90000DD0B1F5007F12D1026A920744BF49F629
:100BA000404080BDB1F5407F1CBF002080BD50F8A3
:100BB000040C4FF22441800301EAE07080BD002064
:100BC00080BD00F077F941F20401C4F20201096826
:100BD0000222C1F3813102EB4101B0FBF1F080BD93
:100BE0000A6810A3C2F340429A5C41F20023C0F2AB
:100BF0007A03B3FBF2F250430968490248BF80BD53
:100C00004AF6AB214000CAF6AA21A0FB0101480820
:100C100080BD00BF02030405060708090A0B0C0D7E
:100C20000E0F1010010200002DE9F04182B00446C1
:100C3000007841F21C06C007C4F202064ED03068AC
:100C4000C0000BD430684FF0010840F08050306095
:100C5000306800F080500190019801E04FF00008EA
:100C600047F20007C4F200073868C00512D438689C
:100C700040F480703860FFF7D3FE05463868C00541
:100C800008D4FFF7CDFE401B6428F7D9032002B03B
:100C9000BDE8F081706810F4407012D0616801F412
:100CA000407188420DD0706840F24042C4F2422246
:100CB000012320F4407113600023C00713607160AA
:100CC00029D17068616820F440700843B8F1000FC2
:100CD000706003D0306820F0805030602068810759
:100CE00007D556F8181CA26821F44041114346F874
:100CF000181CC00603D4002002B0BDE8F08156F8ED
:100D0000180CE16820F48000084346F8180C002015
:100D100002B0BDE8F081FFF783FE054641F2883757
:100D200070688007CDD4FFF77BFE401BB8424FF0C0
:100D30000300F5D9ECE700002DE9F04381B000286D
:100D400000F0878042F20008C4F202080446D8F896
:100D500000000D4600F0070088420CD2D8F80000D1
:100D600020F007002843C8F80000D8F8000000F081
:100D70000700A8426DD1206841F204098107C4F23E
:100D8000020917D5410705D5D9F8001041F4E061F3
:100D9000C9F80010010705D5D9F8001041F46051D9
:100DA000C9F80010D9F80010A26821F0F001114331
:100DB000C9F80010C00745D1D8F8000000F00700BE
:100DC000A8420CD9D8F8000020F007002843C8F842
:100DD0000000D8F8000000F00700A84239D12068D0
:100DE000410707D5D9F80010E26821F4E06111430A
:100DF000C9F80010000708D5D9F80000216920F4CF
:100E0000605040EAC100C9F8000000F065F8D9F868
:100E1000001041F6CE52C1F30311C0F60002515C3E
:100E200040F2000220FA01F140F20C00C2F2000090
:100E30000068C2F200021160FFF71AFE002001B044
:100E4000BDE8F0836068012807D159F8041C8903C4
:100E50000CD4012001B0BDE8F08359F8041C02282D
:100E600002D18901F5D501E08907F2D5D9F8001042
:100E700021F003010843C9F80000FFF7D1FD064641
:100E800041F28837D9F80000616800F00C00B0EB3F
:100E9000810F91D0FFF7C4FD801BB842F2D9032027
:100EA00001B0BDE8F083000040F20000C2F2000093
:100EB0000068704780B5FFF7F7FF41F20401C4F204
:100EC0000201096841F6DE52C1F3C221C0F60002F8
:100ED000515CC84080BD000041F2040CC4F2020C19
:100EE000DCF8003003F00C00082841F20020C0F2CA
:100EF0007A0018BF7047C3F383420AA18A5CD90302
:100F000005D440F60010C0F23D0050437047DCF8B5
:100F1000001008A3C1F34041595C5043B0FBF1F00D
:100F2000704700BF02030405060708090A0B0C0DF1
:100F30000E0F1010010200002DE9F04182B00028D0
:100F400000F0C4800446007841F20006C007C4F2F5
:100F5000020643D0706800F00C00042817D07068B7
:100F600000F00C00082802D17068C0030FD4656837
:100F70009DB1B5F5803F06D03068B5F5A02F0DD1F5
:100F800040F480203060306840F480300CE03068FD
:100F9000800323D5606808BB98E0306820F4803077
:100FA0003060306820F480203060FFF739FD002D7C
:100FB000054610D03068800310D4FFF731FD401B88
:100FC0006428F7D908E100BFFFF72AFD401B642819
:100FD0004FF0030077D830688003F5D4207880077D
:100FE00018D5706810F00C0F07D0706800F00C0076
:100FF000082826D17068C00323D43068800702D542
:101000002069012862D13068616920F0F80040EA67
:10101000C1003060207800073DD5A06938B30020BA
:10102000C4F242200121C0F88014FFF7F9FC054604
:10103000706A80072DD4FFF7F3FC401B0228F7D914
:10104000CAE02069002840F20000C4F2422000F00B
:101050009A8001210160FFF7E3FC054630688007B4
:10106000D1D4FFF7DDFC401B0228F7D9B4E0002003
:10107000C4F242200021C0F88014FFF7D1FC0546DD
:10108000706A800707D5FFF7CBFC401B0228F7D911
:10109000A2E000F011FC207840071BD4E5698DB177
:1010A000706800F00C0008284CD1012D0ED070683B
:1010B000216A00F480328A4208D1616A00F470101B
:1010C000884203D1002002B0BDE8F081012002B0C7
:1010D000BDE8F081F069C0000BD4F0694FF0010861
:1010E00040F08050F061F06900F08050019001986C
:1010F00001E04FF0000847F20007C4F2000738682B
:10110000C00510D4386840F480703860FFF788FC60
:10111000054600BF3868C00505D4FFF781FC401BB9
:101120006428F7D958E0E568002D3DD0012D05D0A1
:10113000306A052D39D140F004003062306A40F049
:10114000010038E00027C4F2422700203866FFF78C
:1011500067FC022D05460BD13068800154D5FFF79E
:101160005FFC401B02284FF00300F5D9ABE700BF3E
:1011700030688001A6D5FFF753FC401B02284FF0D2
:101180000300F5D99FE700210160FFF749FC054600
:10119000306880077FF53EAFFFF742FC401B022816
:1011A0004FF00300F4D98EE7306A20F0010030627E
:1011B000306A20F004003062FFF732FC002D054653
:1011C00041F2883714D000BF306A800713D4FFF78C
:1011D00027FC401BB842F7D9032002B0BDE8F081DC
:1011E000FFF71EFC401BB8424FF003003FF66BAF09
:1011F000306A8007F4D4B8F1000F3FF44FAFF069C4
:1012000020F08050F06149E7206AB0F5803F05D1B9
:101210007168A26821F40031114371607168626ADB
:1012200021F4741110430843706001203866FFF701
:10123000F7FB0446306880013FF544AFFFF7F0FB51
:10124000001B02284FF00300F4D93CE780B500F002
:101250004BFB80BDB0B5C26B012A04BF0220B0BDFC
:1012600001F108053CCDD1E900CE23F47C5322F4F2
:1012700070521A432EF4F0431A432CF4E0431A43FD
:1012800024F4C0431A432A43C96922F48042036804
:10129000114359640021C1630846B0BD10B5C26B4B
:1012A000012A4FF002022DD00123C36302640268B9
:1012B000D2F804E0D2F808C00C682EF07003234383
:1012C00040F2FF74C4F20004A242536005DCB2F1A4
:1012D000804F0ED040F2004307E042F60043C4F2D4
:1012E00001039A4205D040F60003C4F200039A427B
:1012F00004D149682CF08003194391600121002238
:101300000164C263104610BD002804BF012070476D
:1013100010B50446006C20B90020E063204600F0C0
:1013200013F8022020642068211D00F039FB012001
:1013300060666064A064E06420656065A065E06547
:1013400020662064002010BD81B0006842F6004194
:10135000C4F20101884201D001B0704741F2180087
:10136000C4F20200016841F400610160006800F409
:1013700000600090009801B07047000010B504466E
:10138000C06B01284FF0020008BF10BD0122E263CC
:10139000206420684FF6777382689A4382600A68F7
:1013A0003F2A14DD5F2A18DD602A28D0B2F5005FDD
:1013B0002DD0702A40D1D1E9012CCB68614600F0D4
:1013C00047FB2068816841F07701816034E01F2A83
:1013D0000FDC92B1102A10D02EE0402A23D0502AE0
:1013E0002AD14B68CA68194600F004FC20685021D5
:1013F00020E0202A01D0302A1ED111461AE04B6885
:10140000CA68194600F008FC2068602112E0D1E9A2
:10141000012CCB68614600F01BFB2068816841F419
:101420008041816008E04B68CA68194600F0E2FB21
:101430002068402100F018FB012020640020E063B8
:1014400010BD000080B586B0014640F60000C4F231
:101450000100096800F5105291424FF00001CDE9FA
:101460000411CDE9021101D006B080BD41F218018E
:10147000C4F202010A6842F004020A60096801F03D
:101480000401019101994FF44071029102210391ED
:10149000059102A9FFF7B2F906B080BDB0B50446C8
:1014A000C06B012804BF0220B0BD4FEAB2000D4658
:1014B00001210328E16336D8DFE800F0020A122296
:1014C0002068294600F0D8FA206850F8181F0EE06E
:1014D0002068294600F000FB206850F8181F16E02D
:1014E0002068294600F02CFB206850F81C1F41F0B2
:1014F00008010160016821F00401016029690FE021
:101500002068294600F050FB206850F81C1F41F469
:1015100000610160016821F48061016029690902AC
:101520000268114301600020E063B0BD002804BFE1
:101530000120704710B50446006C20B90020E0631C
:10154000204600F013F8022020642068211D00F0DE
:1015500027FA012060666064A064E064206560652D
:10156000A065E06520662064002010BD7047000083
:10157000B0B5044641B1082909D0042914BF04F1CB
:10158000500004F1480004E004F1440001E004F1DB
:101590004C00006801281CBF0120B0BD41B10829E2
:1015A00009D0042914BF04F1500004F1480004E0FC
:1015B00004F1440001E004F14C00022202602068C2
:1015C00042F644450122C4F2010500F02FFA2068DA
:1015D000A5F14401884203D1296841F40041296002
:1015E00040F2FF71C4F20001884205DCB0F1804F87
:1015F0000ED040F2004107E042F60041C4F2010182
:10160000884205D040F60001C4F20001884206D1AC
:10161000816801F00701062904BF0020B0BD016800
:1016200041F0010101600020B0BD0000FEE70000B4
:10163000B0B584B040F2100042F200410024C2F282
:101640000000C4F201014FF4602201250394CDE9AA
:101650000144C261C0E90014C0E90244C0E9045475
:10166000FEF7B8FE68B940F21000C2F2000001A90E
:10167000CDE901450394FEF725FE002804BF04B020
:10168000B0BDFEF719FE00002DE9F04186B000263E
:1016900041F21800CDE90466CDE90266C4F2020009
:1016A000016840F6000441F0200101600168C4F2C5
:1016B000010401F02001019101990168002241F02B
:1016C0000401016000684FF4406100F004000190E3
:1016D000019820464FF44068FFF79CF90E200290D5
:1016E0000020C1F2210002AD0390012720462946C7
:1016F0000497FFF783F80220CDE902870590204682
:1017000029460496FFF77AF8072001210022FFF707
:10171000FDF90720FFF7F6F9082001210022FFF765
:10172000F5F90820FFF7EEF9092001210022FFF763
:10173000EDF90920FFF7E6F906B0BDE8F0810000F9
:1017400010B596B040F2400042F600420021C2F2CD
:101750000000C4F2010242F20F731591CDE913119A
:10176000CDE91111CDE90F11CDE90D11CDE90B1125
:10177000CDE90911CDE90711CDE90511CDE9031135
:10178000CDE90111C0E90021C0E90213C0E904114B
:101790008161FFF7B9FD002852D14FF480501290BB
:1017A00040F24000C2F2000012A9FFF7E7FD002856
:1017B00046D140F24000C2F20000FFF7B7FE002819
:1017C0003ED140F240000024C2F2000010A9CDE951
:1017D0001044FFF763FD98BB6020CDE9090440F297
:1017E0004000C2F2000009A90022CDE90B44CDE976
:1017F0000D440F94FFF752FE10BB40F24000C2F2BE
:10180000000009A90422FFF749FEC8B9002005908D
:10181000CDE90300CDE901004FF40051089040F2FA
:1018200040000691C2F2000001A9FFF713FD38B98C
:1018300040F24000C2F20000FFF704FE16B010BDF7
:10184000FEF73AFDFEE70000FEE7000000F00700AB
:1018500080F00703042B28BF04234FF0FF3C03381C
:101860000CFA03F338BF0020994381400CFA00F0D2
:1018700022EA000008437047B0B500F0FDF940F2DD
:101880004005C2F20005296840F60004C4F20104D4
:10189000486320464FF480610122FFF7BBF800F057
:1018A000EBF929680122886320464FF40061FFF7B5
:1018B000B1F8B0BD7047000081B040F20000C2F244
:1018C0000000006844F6D351C1F26201A0FB01019F
:1018D000480A009000BF0098411E00280091F9D1ED
:1018E00001B0704770470000B0B501380024B4EB78
:1018F000106F1CBF0120B0BD4EF21005CEF20005E6
:1019000068604FF0FF300F2100F0F8F90720AC605D
:1019100028602046B0BD000080B5FFF787F880BD85
:1019200070B594B00AAC20462821FEF702FC0025D1
:1019300001204FF480310A90CDE90B150E9002265C
:101940004FF4E010CDE91161139020460995CDE9DF
:101950000755CDE90555CDE90355CDE90155FFF70B
:10196000EBFAC0B90F20CDE905064FF4806007956A
:10197000CDE9080505A80221FFF7DEF958B90220D4
:1019800001904FF40040039001A8FFF74DF90028A3
:1019900004BF14B070BDFEF78FFC0000704700005C
:1019A00010B540F2FF7E0368C4F2000E42F6004C10
:1019B0007045C4F2010C05DCB0F1804F0AD040F252
:1019C000004203E0604505D040F60002C4F2000288
:1019D000904203D14A6823F070031343704505DC3D
:1019E000B0F1804F0AD040F2004203E0604505D0DC
:1019F00040F60002C4F20002904203D1CA6823F408
:101A00004073134323F080024B69D1F800E08C68E7
:101A10001A4360450260C462C0F828E002D1096937
:101A2000CCF830100121416110BD000080B501F0FB
:101A30001F014FF0010CD0F820E00CFA01F32EEA60
:101A400003030362036A02FA01F11943016280BDD4
:101A5000D0F808C011432CF47F4C41EA032141EA3D
:101A60000C01816070470000826822F0700211430F
:101A700041F007018160704770B5026A42F6004E7E
:101A800022F001020262026A456883690C688E686E
:101A900023F0730322F00202C4F2010E43EA040CA5
:101AA000704542EA060208D070450ED04560C0F885
:101AB00018C049684163026270BDCB6822F00C0215
:101AC00023F004031A437045F0D125F44073D1E9A3
:101AD000056533431D43E9E770B5026A42F6004EDF
:101AE00022F010020262026A456883690C688E68FF
:101AF00023F4E64322F02002C4F2010E43EA042C50
:101B0000704542EA061208D0704510D04560C0F812
:101B100018C049688163026270BDCB686FF04004F1
:101B200022F0C00204EA03131A437045EED125F4F3
:101B30004063D1E9056543EA860343EA8505E5E7A5
:101B400070B5026A42F6004E22F480720262026AA6
:101B50004568C3690C688E6823F0730322F4007231
:101B6000C4F2010E43EA040C704542EA062208D092
:101B7000704510D04560C0F81CC04968C16302625E
:101B800070BDCB6840F2FF441B0222F44062A343C5
:101B90001A437045EED125F44053D1E9056543EA77
:101BA000061343EA0515E5E7B0B5026A22F4805250
:101BB0000262046AD0F804E0C2690B6822F4E642CB
:101BC0008D6842EA032C42F6004324F40052C4F22A
:101BD0000103984242EA053304D14A692EF4804554
:101BE00045EA821EC0F804E0C0F81CC049680164E0
:101BF0000362B0BDD0F820C0036A23F00103036282
:101C0000836923F0F00343EA02122CF00A0319431C
:101C10008261016270470000036A23F010030362CF
:101C20008369D0F820C023F4704343EA02322CF0D9
:101C3000A00343EA0111826101627047B0B500F070
:101C40001BF840F24005C2F20005296840F6000486
:101C5000C4F20104486320464FF480610022FEF77D
:101C6000D9FE00F009F829680022886320464FF465
:101C70000061FEF7CFFEB0BD10B582B040F2100497
:101C8000C2F200042046FEF72FFD20466421FEF735
:101C900065FC2046FEF79AFB40F2AE01C2F200015D
:101CA000088080B242F20F74002140F6C272002315
:101CB000009400F06FF840F2AC020146C2F200025C
:101CC00080B2118002B010BDFEE70000002848BFBE
:101CD000704700F01F01012202FA01F14EF20012DA
:101CE0004009CEF2000242F8201070474EF60C5028
:101CF000CEF200000068C0F3022070474EF6145385
:101D000000F00F02CEF2000309011A4400F1604313
:101D1000B0F1FF3FC8BF03F5644211707047000087
:101D20004EF60C51CEF200010A684FF6FF031A403E
:101D300060F30A2242F0806040F0FD700860704756
:101D4000FEF782FEFFF7ECFDFFF79EFCFFF770FC4D
:101D5000FFF7F6FC40F24004C2F2000420460021E6
:101D6000FFF706FC20460421FFF702FC40F20404C2
:101D7000C2F200042088012808BFFFF75FFF208817
:101D8000022808BFFEF76AFA20880328F2D1FFF77D
:101D900073FDEFE780B5DDF808C0A0EB010EACEBFA
:101DA000030000FB0EF0511A90FBF1F0184480BDC7
:101DB00002E008C8121F08C1002AFAD17047704714
:101DC000002001E001C1121F002AFBD17047000072
:101DD00000000000000001020304060708090000DB
:101DE0000000010203040000081E0008000000209B
:101DF00010000000B01D0008181E00081000002090
:101E0000A0040000C01D00080024F4000100000030
:081E10000100000010000000B9
:04000005080000ED02
:00000001FF
